:020000040800F2
:10000000680700209D0100089F1900089917000843
:100010009D190008C9030008211F00080000000006
:10002000000000000000000000000000C3190008EC
:100030007D04000800000000C1190008C51900086F
:10004000B7010008B7010008B7010008B7010008B0
:10005000B7010008B7010008B7010008B7010008A0
:10006000B7010008B7010008B7010008B701000890
:10007000B7010008B7010008B7010008B701000880
:10008000B7010008B7010008B7010008B701000870
:10009000B7010008B7010008B7010008B701000860
:1000A000B7010008B7010008B7010008B701000850
:1000B000B7010008B7010008B7010008B701000840
:1000C000B7010008B7010008B7010008B701000830
:1000D000B7010008FD1E0008091F0008151F0008D1
:1000E000B7010008B7010008B7010008B701000810
:1000F000B7010008B7010008B7010008B701000800
:10010000B7010008B7010008B7010008B7010008EF
:10011000C51A0008B7010008B7010008B7010008B8
:10012000CD030008B7010008B7010008B7010008B7
:10013000B70100080000000000000000B70100083F
:10014000B7010008B7010008B7010008B7010008AF
:10015000B7010008B7010008B7010008B70100089F
:10016000B7010008B7010008B7010008B70100088F
:10017000B7010008B70100080000000000000000FF
:10018000B7010008B7010008DFF80CD000F02EF826
:1001900000480047C1220008680700200648804741
:1001A00006480047FEE7FEE7FEE7FEE7FEE7FEE75C
:1001B000FEE7FEE7FEE7FEE7711A00088901000886
:1001C00030B50B46014600202022012409E021FA27
:1001D00002F59D4205D303FA02F5491B04FA02F524
:1001E0002844151EA2F10102F1DC30BD064C074D7A
:1001F00006E0E06840F0010394E8070098471034F7
:10020000AC42F6D3FFF7C4FF0424000824240008FE
:1002100010B50146806B026C12F0500F05D0806B58
:10022000C26CBDE8104008461047016C41F40071F3
:10023000016401688A6812F0405F17D18269AAB927
:10024000CA6A12F4700F02D08A6852050ED44A6846
:1002500022F020024A60016C21F480710164016C7B
:10026000C90403D4016C41F00101016400F0B0F94C
:1002700010BD10B5806B40210164416C41F0040158
:10028000416400F0A7F910BD10B5806B00F0A1F932
:1002900010BD00004A4910B5D1F8042322F44032C1
:1002A000C1F80423D1F8042343681A43C1F8042396
:1002B00001684A6822F480724A6001684A680369EA
:1002C00042EA03224A6001684A6822F040724A60AA
:1002D00001684A6883681A434A6001688A6822F4A0
:1002E00000628A6001688A68C3681A438A60816A0A
:1002F0006FF07062D14201688A6822F070628A6091
:1003000001688A680CD0836A1A438A6001688A6827
:1003100022F040528A6001688A68C36A1A4301E089
:1003200022F040528A6001688A6822F002028A60E4
:1003300001688A68836942EA43028A60016A002987
:1003400001684A6815D042F400624A6001684A6850
:1003500022F460424A6001684B684FF46044426A8C
:1003600094FAA4F4B4FA84F4521EA24013434B60EE
:1003700002E022F400624A600168CA6A22F4700254
:10038000CA620168CA6A838B0E4C04EB03531A439A
:10039000CA6201688A6822F400728A6001688A6809
:1003A000036B42EA43228A6001688A6822F4806211
:1003B0008A6001688A68406942EA8020886010BDCE
:1003C000002001400000F0FFFEE70000014800F0BF
:1003D000FBB900000803002001681823CAB2103AD4
:1003E000B2FBF3F2054B6FF30901032A9B5CC36573
:1003F00000D9091D8165084670470000EC230008FC
:1004000010B5014600208B698A6A4FF0C07453B161
:10041000B3F5005F15D072B1012A0CD0022A0AD0C0
:10042000032A09D104E01AB1012A06D0022A03D115
:10043000C96AC90100D5012010BDC96AA142FAD01C
:1004400010BD002AF7D0012AF2D0022AF3D0032AE5
:10045000F3D010BD30B50468256825F480252560EB
:10046000046863608368402B036803D09960006868
:10047000C26030BD9A600068C16030BD7047FEE761
:1004800078B50024009490F83C20012A19D001226C
:1004900080F83C200A6807230568092A13D9EE680A
:1004A0000A3A02EB420293409E43EE600B788A6860
:1004B0000A3B03EB43039A400368DD682A43DA6092
:1004C00010E0022078BD2E6902EB420293409E4369
:1004D0002E610A788B6802EB42029340026815692C
:1004E0002B4313614A681F23072A13D205686E6BDA
:1004F000521E02EB820293409E436E630B790A8880
:100500005B1E92B203EB83039A4003685D6B2A4340
:100510005A6327E005680D2A12D22E6BD21F02EB18
:10052000820293409E432E630B790A88DB1F92B2AE
:1005300003EB83039A4003681D6B2A431A6311E09F
:10054000EE6A0D3A02EB820293409E43EE620B7913
:100550000A880D3B92B203EB83039A400368DD6A7D
:100560002A43DA62174A0368934208D10B68122BB8
:1005700005D1D2F8043343F48003C2F8043303688E
:1005800093421AD10B68102B01D0112B15D1D2F840
:10059000043343F40003C2F80433096810290CD172
:1005A00009490A4A0968B1FBF2F101EB81014900EE
:1005B00000E0491E00910029FBD180F83C4000205A
:1005C00078BD0000002001400000002040420F00E4
:1005D00070477047704770B504004FF0000503D0B6
:1005E000206C002610B107E0012070BD666484F81D
:1005F0003C60204600F01AF8206CC00610D4206C35
:1006000020F4885040F0020020642046FFF742FEAC
:100610006664206C20F0020040F00100206400E0DD
:10062000012584F83C60284670BD000070B5064680
:100630000068184986B088422AD117480025016809
:1006400041F4807101600068694600F48070059093
:10065000702000900320CDE90105104800F02CFA2D
:10066000104C0F48C4E900050015A560C4E903500B
:10067000800060618000A0618011C4E90705204608
:10068000656200F075F908B1FFF7F9FEB463A6637F
:1006900006B070BD00200140443802400000024016
:1006A0001064024008030020F8B50D4600210446FE
:1006B000009190F83C00012807D0012084F83C000C
:1006C00020688368DB0702D011E00220F8BD836850
:1006D00043F0010383602D482D4B0068B0FBF3F01D
:1006E00000EB400000E0401E00900028FBD1206895
:1006F0008368DB0748D0236C40F20166B34343F4C0
:10070000807323644068400505D5206C20F40050B8
:1007100040F480502064206CC00404D5606C20F04C
:100720000600606400E0616484F83C10A16B194825
:10073000C863A16B18480864A16B1848C864216895
:100740006FF0220008602068416841F080614160DC
:100750002068816841F480718160216813462A46CF
:100760004C31A06B00F06CF90D49D1F80403C006C0
:10077000206801D0884207D1816811F0405F03D121
:10078000816841F0804181600020F8BD00000020B8
:1007900040420F001102000889020008730200089D
:1007A0000020014090F83510022903D080214165D6
:1007B00001207047052180F835100068016821F09C
:1007C00001010160002070472DE9F84304464FF015
:1007D0000008CDF8008064484FF41651A56D0068FC
:1007E000B0FBF1F72E6894F85C10082000FA01F1D4
:1007F00031420FD021680A6852070BD50A6822F0EF
:1008000004020A6094F85C108840A860606D40F0B3
:100810000100606594F85C1054488840304208D06C
:1008200021684969090604D5A860606D40F002009E
:1008300060654E4894F85C10C01C8840304208D077
:1008400021680968890704D5A860606D40F004003C
:10085000606594F85C1010208840304218D0216800
:100860000968090714D5A86020680168490304D500
:100870000068000308D5A16C07E00168C90503D42E
:10088000016821F008010160216C09B12046884708
:1008900094F85C102020884030424FF0010631D09F
:1008A00021680968C9062DD5A86094F83500052887
:1008B0002068016806D0490347D5006800031DD4AD
:1008C000616C1CE021F0160101602068416921F093
:1008D00080014161206C08B9A06C20B120680168DA
:1008E00021F00801016094F85C103F208840A86066
:1008F00084F8348084F83560216D1FE0E16B09B124
:1009000020468847606D00282BD0606DC00714D04A
:10091000052084F835002068016821F0010101609C
:100920000098401C0090B84203D820680068C007B7
:10093000F6D184F8348084F83560E16C002910D059
:1009400001B02046BDE8F04308470168C905D5D489
:10095000016821F01001016084F8348084F835606A
:10096000CCE7BDE8F8830000000000200100800013
:100970002DE9F041044600F07DF906465CB1002502
:1009800084F83450022084F835002068016821F092
:10099000010101600DE00120BDE8F08100F06AF97D
:1009A000801B052805D920206065032084F83500C8
:1009B000F2E720680068C007F0D1226811681F487C
:1009C0000140D4E901031843D4E903363343184303
:1009D00063691843A3691843E3691843236A1843FA
:1009E0000843616A042903D1D4E90B13194308436E
:1009F000106020684069666A20F0070130460E43A7
:100A0000012704280AD1A06A06432046FFF7F8FC14
:100A100020B14020606584F83570BCE720684661ED
:100A20002046FFF7D9FC94F85C203F21914081607B
:100A3000656584F835700020AEE700003F8010F057
:100A40002DE9F0410446866D90F834000025012818
:100A50000DD0012084F8340094F835700020012F67
:100A600007D084F8340002252846BDE8F081022032
:100A7000FBE7022784F8357060652046FFF7EAFC43
:100A800094F85C103F208840B0602068016841F015
:100A9000160101602068416941F080014161206CCC
:100AA00020B12068016841F00801016020680168F8
:100AB00041F001010160D7E72DE9F84FDFF87CB183
:100AC00000224FF001084FF0030A4FF00F090BF11D
:100AD000040E00BF0B6808FA02F42340A3426ED153
:100AE0004D68022D01D0122D0ED1D50800EB850CDA
:100AF000DCF820505607F70E09FA07F6B5430E69E1
:100B0000BE402E43CCF82060066855000F790AFAE3
:100B100005FC07F0030726EA0C06AF4037430760E1
:100B20004E68012E05D0022E03D0112E01D0122EB8
:100B30000ED18668CF6826EA0C06AF40374387603F
:100B40004668A6430C79C4F30014944034434460CF
:100B5000C6688C6826EA0C06AC403443C4604C6816
:100B6000E40065D5364C256845F480452560246849
:100B700022F0030504F480440094324C2E19D6F878
:100B8000084895072F0F09FA07F5AC432E4DA842E8
:100B900001D1002524E02D4DA84201D101251FE0FF
:100BA0002B4DA84201D102251AE02A4DA84201D1BD
:100BB000032515E0284DA84202D1042510E037E0B6
:100BC000264DA84201D105250AE0254DA84201D1B4
:100BD000062505E0234DA84201D1072500E00825A0
:100BE000BD402543C6F80858DBF800405D464E6816
:100BF0009C43F60300D51C432C60DEF8004075468C
:100C00004E689C43B60300D51C432C600B4D083541
:100C10002C684E689C43F60200D51C432C60074D9F
:100C20000C352C684E689C43B60200D51C432C60E2
:100C3000521C102AFFF44EAFBDE8F88F003C014073
:100C400044380240003001400000024000040240ED
:100C500000080240000C0240001002400014024054
:100C600000180240001C02400AB18161704709046B
:100C7000FBE7000001480068704700000400002006
:100C800002480168491C0160704700000400002010
:100C90000B4810B5016841F400710160016841F42E
:100CA00080610160016841F480710160032000F0FF
:100CB00075F8002000F006F800F018F8002010BDCC
:100CC000003C024010B5044607484FF47A710068B2
:100CD000B0FBF1F000F021FB00222146501E00F095
:100CE0003DF8002010BD00000000002010B50320DA
:100CF00000F054F8002211466FF00B0000F02EF8BF
:100D0000002211466FF00A0000F028F80022114678
:100D10006FF0090000F022F800221146501F00F089
:100D20001DF800221146101F00F018F8002211468D
:100D3000901E00F013F80022BDE810401146501E2E
:100D400000F00CB800F01F02012191404009800022
:100D500000F1E020C0F8001170470000F0B40E4B25
:100D60001B680C46C3F30223C3F10705042D00D909
:100D70000425191D072901D2002300E0DB1E0126EE
:100D800006FA05F1491E214099409E40761E164004
:100D90003143F0BC00F004BE0CED00E0064900F069
:100DA000070208684FF6FF03184040EA0220034A92
:100DB00010430860704700000CED00E00000FA05E9
:100DC0002DE9F047DFF8649105460F46D9F8000099
:100DD00000F00F01F8B28046B94208D2014689F806
:100DE0000010D9F8000000F00F00B84274D1287844
:100DF0004F4C800705D52068A96820F0F000084313
:100E000020602878C00759D0494968680839012806
:100E10001AD002281BD0032819D009688907002995
:100E20005ADA216821F0030101432160FFF722FF14
:100E30006968064641F28830012911D002291DD087
:100E40000329824627D035E009688903E7E7096866
:100E50008901E4E7FFF70EFF811B514501D926E028
:100E600082462068C0F381000128F3D126E000BF4C
:100E7000FFF700FF811B514501D918E08246206829
:100E8000C0F381000228F3D118E000BFFFF7F2FEA3
:100E9000811B51450BD82068C0F381000328F5D190
:100EA0000CE000BFFFF7E6FE811B514502D903208D
:100EB000BDE8F087206810F00C0FF3D1D9F80010CE
:100EC000484601F00F01B94208D980F80080006857
:100ED00000F00F00B84201D00120E9E72878400770
:100EE00005D52068E96820F4E050084320602878A0
:100EF000000706D52068296920F4604040EAC10057
:100F0000206000F051F82168F02292FAA2F201F07C
:100F1000F001B2FA82F2D140064A515CC84006495B
:100F200008600020FFF7CEFE0020C1E7003C024031
:100F300008380240F423000800000020014800683F
:100F4000704700000000002008480949006809684F
:100F50004FF4E05292FAA2F201F4E051B2FA82F2B6
:100F6000D140044A515CC840704700000000002096
:100F700008380240F4230008084809490068096855
:100F80004FF4604292FAA2F201F46041B2FA82F2A6
:100F9000D140044A515CC840704700000000002066
:100FA00008380240F423000830B51948006810F0F2
:100FB0000C01184812D0184C04290ED008290DD164
:100FC0001349091F0A6802F03F030A68550247F6F1
:100FD000C07204D5B4FBF3F003E0204630BDB0FB93
:100FE000F3F00B680968134092FAA2F2B2FA82F2A7
:100FF000D34058434FF4403292FAA2F201F4403108
:10100000B2FA82F2D140491C4900B0FBF1F030BD88
:10101000083802400024F400001BB7002DE9F84F07
:101020000446DFF8CC820078A8F1040BC007ABF1CE
:10103000040537D0D8F800104046C1F381010129DA
:1010400008D00068C0F3810002280AD1DBF8000054
:10105000400206D52868800324D56068002878D02F
:1010600020E0A3492079891F0870606868B1FFF704
:1010700001FE064605E000BFFFF7FCFD801B64286B
:1010800068D828688003F7D50CE0FFF7F3FD064623
:1010900005E000BFFFF7EEFD801B6428F0D828684C
:1010A0008003F7D42078934E80074FF0010A4FF069
:1010B000000742D5D8F80010404611F00C0F08D0B8
:1010C0000068C0F3810002280AD1DBF8000040026A
:1010D00006D42868800714D5E068012839D110E0CB
:1010E000E068D8B1C6F800A0FFF7C4FD814605E06E
:1010F000FFF7C0FDA0EB09000228C1D828688007CF
:10110000F6D52868F82292FAA2F22169B2FA82F2A0
:1011100020F0F8009140084328600EE03760FFF7A8
:10112000A9FD814606E000BFFFF7A4FDA0EB090082
:1011300002280FD828688007F6D42078000728D521
:101140006D486169A1B1C0F800A0FFF793FD814629
:1011500008E0CAE079E000BFFFF78CFDA0EB0900D2
:10116000022872D862486C3000688007F4D510E01D
:101170000760FFF77FFD814606E000BFFFF77AFDBD
:10118000A0EB0900022860D859486C30006880073D
:10119000F4D42078400749D555483830016841F0EB
:1011A00080510160006800F0805000905348016851
:1011B00041F480710160FFF75DFD814606E000BFEC
:1011C000FFF758FDA0EB090002283ED84B48006805
:1011D000C005F5D5DFF81891207A09F1680989F87A
:1011E0000000A06888B1FFF745FD009008E000BF4F
:1011F000FFF740FD0099411A41F2883081426CD8D6
:10120000D9F800008007F3D510E0FFF733FD009018
:1012100008E000BFFFF72EFD0099411A41F2883027
:1012200081425AD8D9F800008007F3D4A069E0B30E
:10123000D8F80010C1F38101022956D00228376680
:1012400004D0FFF717FD04464AE046E0FFF712FD21
:10125000074604E0FFF70EFDC01B02283DD82868B2
:101260008001F7D4D4E90701084347F6C07292FA27
:10127000A2F2616AB2FA82F29140A26A4FF0FF33A1
:1012800003EB52024FF4403393FAA3F3B3FA83F320
:101290009A40114308434FF0706292FAA2F2E16A59
:1012A000B2FA82F29140084300E01CE0CBF8000063
:1012B000C6F860A0FFF7DEFC044604E0FFF7DAFCA6
:1012C000001B022809D828688001F7D50BE000BF71
:1012D000FFF7D0FC001B022802D90320BDE8F88FDD
:1012E00028688001F4D40020F8E70120F6E7000028
:1012F0000838024000004742800E4742007000401C
:101300004FF0E0210428086903D020F004000861B0
:10131000704740F00400FAE7704710B5401EB0F186
:10132000807F01D3012010BD4FF0E02460610F21C8
:10133000601700F035FB0020A0610720206100202D
:1013400010BD10B5FFF7E8FF10BD704770B502681B
:1013500004461068D168536910F00F0F51D003F0A4
:10136000010501F4907635435DD0C20705D0CA056A
:1013700003D5E26B42F00102E263420705D5DA07CA
:1013800003D0E26B42F00202E263820705D5DA077E
:1013900003D0E26B42F00402E263020705D5DA07EC
:1013A00003D0E26B42F00802E263E26B002A34D021
:1013B000800604D5880602D5204600F09FFB2068F1
:1013C0004069E16BC0F3801001F008010143204641
:1013D00024D000F085FB2068416949061AD541698F
:1013E00021F040014161606BA0B11B490165606B58
:1013F000FFF7D8F9002810D0606B016DBDE8704090
:10140000084783060FD58B060DD52046BDE87040F2
:1014100000F074BB2046FFF798FF70BDFFF795FF03
:101420000020E06370BD030606D50B0604D52046F8
:10143000BDE8704000F0FEBC4006F3D54806F1D58B
:10144000D168204621F04001D160202184F8391074
:1014500000F0A1F970BD0000D11A000870B50400B9
:1014600004D094F83900002510B106E0012070BDC9
:1014700084F83850204600F023F8242084F83900FE
:101480002068C16821F40051C160204600F07CFB57
:101490002068016921F4904101612068416921F0CF
:1014A0002A0141612068C16841F40051C160E563CF
:1014B000202084F8390084F83A00002070BD000034
:1014C000F0B53C4E04683C490322022301253B4809
:1014D00087B0B44216D10C6844F400240C6009684B
:1014E00001F4002105918DE82C000821CDE90321AC
:1014F0006946FFF7E1FA002211463420FFF72EFC7F
:1015000034201CE02E4F0726BC421CD12A49091D5D
:101510000C6844F010040C60096801F0100105919A
:101520004FF4C0618DE82A00CDE903266946FFF734
:10153000C3FA002211462520FFF710FC2520FFF7F3
:1015400001FC07B0F0BD1F4FBC4216D10C6844F43B
:1015500000340C60096801F4003105910C218DE81C
:101560002A00CDE903266946FFF7A6FA00221146B4
:101570002620FFF7F3FB2620E1E713488442E0D161
:10158000086840F4802008600868694600F48020FC
:1015900005904FF440608DE82900CDE903260B4803
:1015A000FFF78AFA002211462720FFF7D7FB2720F2
:1015B000C5E70000004C00404038024000000240F7
:1015C0000010014000440040004800400004024078
:1015D00090F83A30202B1DD1D1B1CAB190F83830F3
:1015E000012B17D081628285C2850021C16322222E
:1015F00080F83A2080F8381001684A6942F0010208
:101600004A610068C16841F49071C1600020704770
:10161000012070470220704770B505682A480124F0
:101620002A490068854209D1881D0C7042780378E8
:1016300002EB03228A800022027042702448006874
:1016400085421DD123480278592A19D14278592A56
:1016500016D100231A46865C521C33449BB2082ADA
:10166000F9DB027ADBB29A420AD14C708278C378F5
:1016700002EB03220A810279407902EB00204881C3
:101680001548006885421ED1124809300278592A4F
:1016900019D14278592A16D100221346C55C5B1C29
:1016A0002A4492B2082BF9DB037AD2B293420AD1D0
:1016B0008C708278C37802EB03228A8102794079A8
:1016C00002EB0020C88170BD40020020080000200D
:1016D00080020020AC010020C00100202DE9F84369
:1016E000044690F839001F4616460D46202850D172
:1016F000A5B19EB194F8380001284AD0012084F8A1
:1017000038004FF00008C4F83C80212084F83900EC
:10171000FFF7B0FAA6848146E68426E00120BDE802
:10172000F883E08C401EE084A0684B46B0F5805FF3
:101730004FF000024FF080012046009703D000F0E8
:10174000AAFBE8B90DE000F0A6FBC8B9288821681B
:10175000C0F308004860206908B16D1C05E0AD1CAD
:1017600003E0216815F8010B4860E08C0028D8D10F
:101770004B46002240212046009700F08CFB08B128
:101780000320CCE7202084F8390084F8388000203A
:10179000C5E70220C3E77047FEE700007FB51D489C
:1017A0001B49012401604FF44031416000218160F8
:1017B0000162C162C0E903140325C0E90645046360
:1017C0004461FEF708FF08B1FEF759FE0420CDE999
:1017D000000469460F480294FEF752FE08B1FEF776
:1017E0004EFE052000900220019069460948FEF750
:1017F00047FE08B1FEF743FE0620CDE90005694625
:101800000448FEF73DFE002801D0FEF738FE7FBDFC
:1018100000200140C0020020094808B5016841F4D9
:10182000800101600068002200F4800000901146F1
:101830003820FFF793FABDE808403820FFF782BA56
:101840003038024070B51B4886B00024016841F072
:1018500080010160016801F080010591016841F09B
:1018600001010160016801F001010591016841F089
:1018700002010160016801F002010591016841F077
:101880000401016000680C4E00F004004FF4E075A4
:101890000590002229463046FFF7E6F90120009521
:1018A000CDE90104694630460394FFF705F906B017
:1018B00070BD000030380240000802400C4810B5EE
:1018C0000A4901604FF4E1314160002181600C223E
:1018D000C160C0E904128161C161FFF7BFFD00284A
:1018E00003D0BDE81040FEF7CABD10BD004C00405B
:1018F000C00100200C4810B50A4901604FF4E131E5
:101900004160002181600C22C160C0E90412816144
:10191000C161FFF7A3FD002803D0BDE81040FEF72A
:10192000AEBD10BD00100140000200200C4810B5F3
:101930000A4901604FF416514160002181600C2278
:10194000C160C0E904128161C161FFF787FD002811
:1019500003D0BDE81040FEF792BD10BD004400402A
:10196000400200200C4810B50A4901604FF4E131F3
:101970004160002181600C22C160C0E904128161D4
:10198000C161FFF76BFD002803D0BDE81040FEF7F2
:1019900076BD10BD0048004080020020FEE7704781
:1019A0000907090E002806DA00F00F0000F1E02018
:1019B00080F8141D704700F1E02080F80014704793
:1019C0007047704710B5FFF75BF9BDE81040FFF7AF
:1019D000B8BC000030B5244893B00025016841F040
:1019E00080510160006800F0805011901F4801682C
:1019F00041F4804101600068022400F480401190AD
:101A00000120009001908005CDE906400620089055
:101A1000A820CDE9090404200B906846FFF7FEFAE0
:101A200000B1FEE70CA90F2081E831004FF4A0506F
:101A30000F904FF48050109005210CA8FFF7C0F9CB
:101A400000B1FEE7FFF77AFA4FF47A71B0FBF1F0DC
:101A5000FFF763FC0420FFF753FC00221146501EE1
:101A6000FFF77CF913B030BD4038024000700040F1
:101A70001048016841F4700101600F48016841F0AD
:101A8000010101600C4A00210832116002680B4B11
:101A90001A400260031D0A4A1A60026822F480227A
:101AA000026005480C300160024958068039086020
:101AB0007047000088ED00E000380240FFFFF6FEAE
:101AC000103000240148FFF741BC0000C001002095
:101AD00010B5806B0021C185C184FFF736FC10BDB5
:101AE0000168CA6822F49072CA6001684A6922F0EB
:101AF00001024A61202180F83A10704710B590F831
:101B00003A10222901D0022010BD8168B1F5805F12
:101B100011D00169002901681FD0496801F07F03D5
:101B2000816A4A1C82620B70C18D491E0904090C2E
:101B3000C18518D026E00269816A002A02685268CD
:101B400005D0D2B20A80816A491C8162ECE7C2F3F7
:101B500008020A80816A891CF7E74A68816A4B1C7F
:101B600083620A70E0E70168CA6822F49072CA6072
:101B700001684A6922F001024A61202180F83A1086
:101B8000FFF74AFD002010BD2DE9F0410446006832
:101B9000016921F44052E168114301612168C8687C
:101BA00049F20C6290432369A268E5691A436369AC
:101BB0002B431A430243CA602168486920F44072EB
:101BC000A06910434861E1696425B1F5004F974869
:101BD000974A21684FF032083FD0914201D08142AC
:101BE0007CD1FFF7C9F900EBC00101EB001061687F
:101BF0008900B0FBF1F6FFF7BFF900EBC00101EB84
:101C0000001061688900B0FBF1F0B0FBF5F06FF0F7
:101C10001801484306EB800108EB0110B0FBF5F01A
:101C200000F0F006FFF7A8F900EBC00101EB00108F
:101C300061688900B0FBF1F0B0FBF5F006EB00162F
:101C4000FFF79AF900EBC00101EB00106168890011
:101C5000B0FBF1F7FFF790F9D2E0914201D0814259
:101C60003DD1FFF789F900EBC00101EB001061687D
:101C70004900B0FBF1F0B0FBF5F00601FFF77CF98D
:101C800000EBC00101EB001061684900B0FBF1F707
:101C9000FFF772F900EBC00101EB00106168490029
:101CA000B0FBF1F0B0FBF5F06FF01801484307EB23
:101CB000800108EBC100B0FBF5F000F0F80006EB86
:101CC0004006FFF759F900EBC00101EB0010616815
:101CD0004900B0FBF1F7FFF74FF93CE055E0FFF7A3
:101CE00033F900EBC00101EB001061684900B0FB63
:101CF000F1F0B0FBF5F00601FFF726F900EBC001AB
:101D000001EB001061684900B0FBF1F7FFF71CF927
:101D100000EBC00101EB001061684900B0FBF1F07D
:101D2000B0FBF5F06FF01801484307EB800108EBBA
:101D3000C100B0FBF5F000F0F80006EB4006FFF73D
:101D400003F900EBC00101EB001061684900B0FB32
:101D5000F1F7FFF7F9F800EBC00101EB0010616843
:101D60004900B0FBF1F0B0FBF5F06FF0180148430B
:101D700007EB800108EBC100B0FBF5F000F00700B5
:101D8000216830448860BDE8F081FFF7DDF800EBA2
:101D9000C00101EB001061688900B0FBF1F6FFF7AC
:101DA000D3F800EBC00101EB001061688900B0FBC3
:101DB000F1F0B0FBF5F06FF01801484306EB80013D
:101DC00008EB0110B0FBF5F000F0F006FFF7BCF8EF
:101DD00000EBC00101EB001061688900B0FBF1F07D
:101DE000B0FBF5F006EB0016FFF7AEF800EBC00114
:101DF00001EB001061688900B0FBF1F7FFF7A4F870
:101E000000EBC00101EB001061688900B0FBF1F04C
:101E1000B0FBF5F06FF01801484307EB800108EBC9
:101E20000110B0FBF5F000F00F00A9E7001401402D
:101E30000010014090F83910212901D0022070478C
:101E40008168B1F5805F016A0BD04A1C02620268AA
:101E500009785160C18C491E0904090CC1840ED057
:101E600017E009880268C1F308015160016900297F
:101E7000016A02D0491C0162ECE7891CFBE701689A
:101E8000CA6822F08002CA600068C16841F040015F
:101E9000C160002070472DE9F041984617460E4674
:101EA0000446069D1DE0681C1BD02DB1FEF7E2FE26
:101EB000A0EB0800A84214D92068C16821F4D071B1
:101EC000C1602068416921F001014161202084F84E
:101ED000390084F83A00002084F838000320BDE877
:101EE000F0812068006836EA000004D00020B84283
:101EF000D9D00020F3E70120F9E700000148FFF7FF
:101F000025BA0000000200200148FFF71FBA0000B8
:101F1000400200200148FFF719BA000080020020AB
:101F2000FEE700000FB4054B10B503A9044A029860
:101F300000F018F810BC5DF814FB0000A92200089E
:101F40001800002002E008C8121F08C1002AFAD1B8
:101F500070477047002001E001C1121F002AFBD129
:101F6000704700002DE9FF4F8BB0884605460026DC
:101F700006E025280BD0DDE90D1290476D1C761C7C
:101F800028780028F5D10FB03046BDE8F08F002446
:101F9000A146A2460122AE4900E0044315F8013FE4
:101FA000203B02FA03F00842F7D128782A2810D003
:101FB0006FF02F022878A0F13001092915D809EB1C
:101FC000890102EB410144F0020400EB01096D1CA0
:101FD000F0E758F8041B5FEA010903D544F4005404
:101FE000C9F1000944F002046D1C28782E2817D18D
:101FF00015F8010F44F004042A280ED06FF02F02C8
:102000002878A0F1300109290AD80AEB8A0102EBED
:10201000410100EB010A6D1CF2E758F804AB6D1C9E
:1020200028786C280FD006DC4C2817D068280DD0F3
:102030006A2814D104E0742810D07A280FD10DE05A
:1020400044F400140AE044F4801401E044F4401421
:102050006978814202D104F580146D1C6D1C2878CA
:10206000692865D006DC00288DD0632827D0642835
:1020700006D15DE06E2808D073282AD0752877D065
:10208000DDE90D129047761CE0E0C4F3025002280F
:1020900009D003280DD0D8F8001004280DD00E6008
:1020A00008F10408D2E0D8F80010F217C1E9006284
:1020B000F6E7D8F800100E80F2E70E70F0E718F897
:1020C000041B8DF8001000208DF80100EB46012064
:1020D00003E058F804BB4FF0FF3061074FF00007F2
:1020E00001D40AE07F1C57450DDA8742FADB1BF862
:1020F00007100029F6D106E07F1C8742FCDB1BF8A5
:1021000007100029F8D1DDE90D23A9EB070081466E
:10211000214600F0B1F83044C61904E0DDE90D12A3
:102120001BF8010B90477F1EF8D22146484688E0F5
:1021300058F8040BC4F302514FF00A0B032900D1E5
:1021400000B2042900D140B2002802DA40422D2119
:1021500002E0210505D52B218DF82410012104E092
:1021600006E0E10710D02021F6E708AF089113E060
:1021700058F8040BC4F302514FF00A0B032900D1A5
:1021800080B2042900D1C0B20021EEE75946FEF723
:1021900017F8303107F8011D0028F7D1ADEB070023
:1021A00000F1200B600702D524F4803401E04FF0E9
:1021B000010ADA4502DDAAEB0B0000E000208246AE
:1021C00000EB0B0108980144A9EB01000A90E00321
:1021D00006D4DDE90D2321460A9800F04DF80644A7
:1021E0004FF0000908E009A911F80900DDE90D1216
:1021F000904709F10109761C08998945F3DBE00352
:102200000CD5DDE90D2321460A9800F035F8064487
:1022100004E0DDE90D1230209047761CBAF1000190
:10222000AAF1010AF5DC05E0DDE90D1217F8010B52
:102230009047761CBBF10001ABF1010BF4DC0A986E
:102240002146DDE90D2300F005F806446D1C97E6F4
:10225000092801002DE9F041044600251E461746D5
:10226000880404D405E039462020B0476D1C641E64
:10227000F9D52846BDE8F0812DE9F0410446002556
:102280001E469046C80301D5302700E02027880469
:1022900004D505E041463846B0476D1C641EF9D5AB
:1022A0002846BDE8F081000013B54FF6FF73012208
:1022B00069460248FFF712FA00981CBD0002002090
:1022C00001203D49401C8842FCD30027FEF7E0FC7A
:1022D000FFF780FBFFF7B6FAFFF79EFAFFF70AFB5E
:1022E000FFF75CFAFFF7EAFAFFF73CFBFFF71EFB8C
:1022F000632232493248FEF7D7F909223149324880
:10230000FFF766F92D4E314CDFF8C48000200346FC
:102310000146024656F82050401C80B22B4456F825
:102320002050401C80B2294456F82050401C80B2F6
:102330002A446328EED32120B3FBF0F3B1FBF0F580
:10234000B2FBF0F060780028E0D000206070092235
:102350001C491D48FFF73CF9628929461DA0FFF77B
:10236000E1FD608940F20271801F8842CED220894F
:10237000B0F5967FCAD342F6E0618842C6D8B5F57B
:10238000C87FC3D9A84206D2012211024046FEF7F7
:102390006BFC0127BAE72FB105F13201884201D861
:1023A000012204E03235A84200D300270022802118
:1023B0004046FEF759FCA9E740420F001C000020F0
:1023C000C0020020AC010020800200200800002094
:1023D0000008024054686972643A20282534642C4D
:1023E0002025346429200D0A000000000006101684
:1023F000000610160000000001020304010203049D
:102400000607080924240008000000201C00000022
:10241000441F0008402400081C0000204C07000056
:10242000541F00080024F400000000000000000019
:10243000000000000000000000000000000000009C
:040000050800018965
:00000001FF
